{
  "contractName": "CrashMetadataStorage",
  "abi": [
    {
      "inputs": [],
      "stateMutability": "nonpayable",
      "type": "constructor"
    },
    {
      "anonymous": false,
      "inputs": [
        {
          "indexed": true,
          "internalType": "uint256",
          "name": "index",
          "type": "uint256"
        },
        {
          "indexed": false,
          "internalType": "string",
          "name": "dataId",
          "type": "string"
        },
        {
          "indexed": false,
          "internalType": "string",
          "name": "vin",
          "type": "string"
        },
        {
          "indexed": false,
          "internalType": "string[]",
          "name": "cids",
          "type": "string[]"
        }
      ],
      "name": "MetadataStored",
      "type": "event"
    },
    {
      "inputs": [
        {
          "internalType": "uint256",
          "name": "",
          "type": "uint256"
        }
      ],
      "name": "metadataArray",
      "outputs": [
        {
          "internalType": "string",
          "name": "dataId",
          "type": "string"
        },
        {
          "internalType": "string",
          "name": "vin",
          "type": "string"
        },
        {
          "internalType": "uint256",
          "name": "timestamp",
          "type": "uint256"
        },
        {
          "internalType": "string",
          "name": "location",
          "type": "string"
        }
      ],
      "stateMutability": "view",
      "type": "function",
      "constant": true
    },
    {
      "inputs": [
        {
          "internalType": "string",
          "name": "_dataId",
          "type": "string"
        },
        {
          "internalType": "string",
          "name": "_vin",
          "type": "string"
        },
        {
          "internalType": "string",
          "name": "_location",
          "type": "string"
        },
        {
          "internalType": "string[]",
          "name": "_cids",
          "type": "string[]"
        }
      ],
      "name": "storeMetadata",
      "outputs": [],
      "stateMutability": "nonpayable",
      "type": "function"
    },
    {
      "inputs": [
        {
          "internalType": "uint256",
          "name": "index",
          "type": "uint256"
        }
      ],
      "name": "getMetadata",
      "outputs": [
        {
          "internalType": "string",
          "name": "dataId",
          "type": "string"
        },
        {
          "internalType": "string",
          "name": "vin",
          "type": "string"
        },
        {
          "internalType": "uint256",
          "name": "timestamp",
          "type": "uint256"
        },
        {
          "internalType": "string",
          "name": "location",
          "type": "string"
        },
        {
          "internalType": "string[]",
          "name": "cids",
          "type": "string[]"
        }
      ],
      "stateMutability": "view",
      "type": "function",
      "constant": true
    },
    {
      "inputs": [],
      "name": "getTotalMetadataCount",
      "outputs": [
        {
          "internalType": "uint256",
          "name": "",
          "type": "uint256"
        }
      ],
      "stateMutability": "view",
      "type": "function",
      "constant": true
    },
    {
      "inputs": [
        {
          "internalType": "uint256",
          "name": "index",
          "type": "uint256"
        }
      ],
      "name": "getCidsForMetadata",
      "outputs": [
        {
          "internalType": "string[]",
          "name": "",
          "type": "string[]"
        }
      ],
      "stateMutability": "view",
      "type": "function",
      "constant": true
    }
  ],
  "bytecode": "0x608060405234801561001057600080fd5b50336000806101000a81548173ffffffffffffffffffffffffffffffffffffffff021916908373ffffffffffffffffffffffffffffffffffffffff1602179055506112ca806100606000396000f3fe608060405234801561001057600080fd5b50600436106100575760003560e01c80633525a97e1461005c5780635b17bc9f1461007a578063740324df146100aa57806387ae5de7146100dd578063a574cea4146100f9575b600080fd5b61006461012d565b604051610071919061101f565b60405180910390f35b610094600480360381019061008f9190610ccf565b61013a565b6040516100a19190610ea8565b60405180910390f35b6100c460048036038101906100bf9190610ccf565b6102a5565b6040516100d49493929190610f16565b60405180910390f35b6100f760048036038101906100f29190610c0c565b61047d565b005b610113600480360381019061010e9190610ccf565b610635565b604051610124959493929190610f70565b60405180910390f35b6000600180549050905090565b60606001805490508210610183576040517f08c379a000000000000000000000000000000000000000000000000000000000815260040161017a90610fff565b60405180910390fd5b600182815481106101bd577f4e487b7100000000000000000000000000000000000000000000000000000000600052603260045260246000fd5b9060005260206000209060050201600401805480602002602001604051908101604052809291908181526020016000905b8282101561029a57838290600052602060002001805461020d906111ad565b80601f0160208091040260200160405190810160405280929190818152602001828054610239906111ad565b80156102865780601f1061025b57610100808354040283529160200191610286565b820191906000526020600020905b81548152906001019060200180831161026957829003601f168201915b5050505050815260200190600101906101ee565b505050509050919050565b600181815481106102b557600080fd5b90600052602060002090600502016000915090508060000180546102d8906111ad565b80601f0160208091040260200160405190810160405280929190818152602001828054610304906111ad565b80156103515780601f1061032657610100808354040283529160200191610351565b820191906000526020600020905b81548152906001019060200180831161033457829003601f168201915b505050505090806001018054610366906111ad565b80601f0160208091040260200160405190810160405280929190818152602001828054610392906111ad565b80156103df5780601f106103b4576101008083540402835291602001916103df565b820191906000526020600020905b8154815290600101906020018083116103c257829003601f168201915b5050505050908060020154908060030180546103fa906111ad565b80601f0160208091040260200160405190810160405280929190818152602001828054610426906111ad565b80156104735780601f1061044857610100808354040283529160200191610473565b820191906000526020600020905b81548152906001019060200180831161045657829003601f168201915b5050505050905084565b60008054906101000a900473ffffffffffffffffffffffffffffffffffffffff1673ffffffffffffffffffffffffffffffffffffffff163373ffffffffffffffffffffffffffffffffffffffff161461050b576040517f08c379a000000000000000000000000000000000000000000000000000000000815260040161050290610fdf565b60405180910390fd5b60006040518060a001604052808681526020018581526020014281526020018481526020018381525090506001819080600181540180825580915050600190039060005260206000209060050201600090919091909150600082015181600001908051906020019061057e9291906109a1565b50602082015181600101908051906020019061059b9291906109a1565b506040820151816002015560608201518160030190805190602001906105c29291906109a1565b5060808201518160040190805190602001906105df929190610a27565b505050600180805490506105f3919061112d565b7f72c5df5c7f4c1cf5b8e8d54953accf77e65ef4e03c6583873d06c6cad2fa34f586868560405161062693929190610eca565b60405180910390a25050505050565b60608060006060806001805490508610610684576040517f08c379a000000000000000000000000000000000000000000000000000000000815260040161067b90610fff565b60405180910390fd5b6000600187815481106106c0577f4e487b7100000000000000000000000000000000000000000000000000000000600052603260045260246000fd5b90600052602060002090600502016040518060a00160405290816000820180546106e9906111ad565b80601f0160208091040260200160405190810160405280929190818152602001828054610715906111ad565b80156107625780601f1061073757610100808354040283529160200191610762565b820191906000526020600020905b81548152906001019060200180831161074557829003601f168201915b5050505050815260200160018201805461077b906111ad565b80601f01602080910402602001604051908101604052809291908181526020018280546107a7906111ad565b80156107f45780601f106107c9576101008083540402835291602001916107f4565b820191906000526020600020905b8154815290600101906020018083116107d757829003601f168201915b5050505050815260200160028201548152602001600382018054610817906111ad565b80601f0160208091040260200160405190810160405280929190818152602001828054610843906111ad565b80156108905780601f1061086557610100808354040283529160200191610890565b820191906000526020600020905b81548152906001019060200180831161087357829003601f168201915b5050505050815260200160048201805480602002602001604051908101604052809291908181526020016000905b8282101561096a5783829060005260206000200180546108dd906111ad565b80601f0160208091040260200160405190810160405280929190818152602001828054610909906111ad565b80156109565780601f1061092b57610100808354040283529160200191610956565b820191906000526020600020905b81548152906001019060200180831161093957829003601f168201915b5050505050815260200190600101906108be565b5050505081525050905080600001518160200151826040015183606001518460800151955095509550955095505091939590929450565b8280546109ad906111ad565b90600052602060002090601f0160209004810192826109cf5760008555610a16565b82601f106109e857805160ff1916838001178555610a16565b82800160010185558215610a16579182015b82811115610a155782518255916020019190600101906109fa565b5b509050610a239190610a87565b5090565b828054828255906000526020600020908101928215610a76579160200282015b82811115610a75578251829080519060200190610a659291906109a1565b5091602001919060010190610a47565b5b509050610a839190610aa4565b5090565b5b80821115610aa0576000816000905550600101610a88565b5090565b5b80821115610ac45760008181610abb9190610ac8565b50600101610aa5565b5090565b508054610ad4906111ad565b6000825580601f10610ae65750610b05565b601f016020900490600052602060002090810190610b049190610a87565b5b50565b6000610b1b610b168461106b565b61103a565b9050808382526020820190508260005b85811015610b5b5781358501610b418882610bcd565b845260208401935060208301925050600181019050610b2b565b5050509392505050565b6000610b78610b7384611097565b61103a565b905082815260208101848484011115610b9057600080fd5b610b9b84828561116b565b509392505050565b600082601f830112610bb457600080fd5b8135610bc4848260208601610b08565b91505092915050565b600082601f830112610bde57600080fd5b8135610bee848260208601610b65565b91505092915050565b600081359050610c068161127d565b92915050565b60008060008060808587031215610c2257600080fd5b600085013567ffffffffffffffff811115610c3c57600080fd5b610c4887828801610bcd565b945050602085013567ffffffffffffffff811115610c6557600080fd5b610c7187828801610bcd565b935050604085013567ffffffffffffffff811115610c8e57600080fd5b610c9a87828801610bcd565b925050606085013567ffffffffffffffff811115610cb757600080fd5b610cc387828801610ba3565b91505092959194509250565b600060208284031215610ce157600080fd5b6000610cef84828501610bf7565b91505092915050565b6000610d048383610d81565b905092915050565b6000610d17826110d7565b610d2181856110fa565b935083602082028501610d33856110c7565b8060005b85811015610d6f5784840389528151610d508582610cf8565b9450610d5b836110ed565b925060208a01995050600181019050610d37565b50829750879550505050505092915050565b6000610d8c826110e2565b610d96818561110b565b9350610da681856020860161117a565b610daf8161126c565b840191505092915050565b6000610dc5826110e2565b610dcf818561111c565b9350610ddf81856020860161117a565b610de88161126c565b840191505092915050565b6000610e0060228361111c565b91507f4f6e6c79206f776e65722063616e2063616c6c20746869732066756e6374696f60008301527f6e2e0000000000000000000000000000000000000000000000000000000000006020830152604082019050919050565b6000610e6660138361111c565b91507f496e646578206f7574206f6620626f756e6473000000000000000000000000006000830152602082019050919050565b610ea281611161565b82525050565b60006020820190508181036000830152610ec28184610d0c565b905092915050565b60006060820190508181036000830152610ee48186610dba565b90508181036020830152610ef88185610dba565b90508181036040830152610f0c8184610d0c565b9050949350505050565b60006080820190508181036000830152610f308187610dba565b90508181036020830152610f448186610dba565b9050610f536040830185610e99565b8181036060830152610f658184610dba565b905095945050505050565b600060a0820190508181036000830152610f8a8188610dba565b90508181036020830152610f9e8187610dba565b9050610fad6040830186610e99565b8181036060830152610fbf8185610dba565b90508181036080830152610fd38184610d0c565b90509695505050505050565b60006020820190508181036000830152610ff881610df3565b9050919050565b6000602082019050818103600083015261101881610e59565b9050919050565b60006020820190506110346000830184610e99565b92915050565b6000604051905081810181811067ffffffffffffffff821117156110615761106061123d565b5b8060405250919050565b600067ffffffffffffffff8211156110865761108561123d565b5b602082029050602081019050919050565b600067ffffffffffffffff8211156110b2576110b161123d565b5b601f19601f8301169050602081019050919050565b6000819050602082019050919050565b600081519050919050565b600081519050919050565b6000602082019050919050565b600082825260208201905092915050565b600082825260208201905092915050565b600082825260208201905092915050565b600061113882611161565b915061114383611161565b925082821015611156576111556111df565b5b828203905092915050565b6000819050919050565b82818337600083830152505050565b60005b8381101561119857808201518184015260208101905061117d565b838111156111a7576000848401525b50505050565b600060028204905060018216806111c557607f821691505b602082108114156111d9576111d861120e565b5b50919050565b7f4e487b7100000000000000000000000000000000000000000000000000000000600052601160045260246000fd5b7f4e487b7100000000000000000000000000000000000000000000000000000000600052602260045260246000fd5b7f4e487b7100000000000000000000000000000000000000000000000000000000600052604160045260246000fd5b6000601f19601f8301169050919050565b61128681611161565b811461129157600080fd5b5056fea2646970667358221220a12d55b6f06d76d4f2184a9c170a97904eef5b738d00b6a93f6636ba8bc0998164736f6c63430008000033",
  "immutableReferences": {},
  "source": "// SPDX-License-Identifier: MIT\r\npragma solidity ^0.8.0;\r\n\r\ncontract CrashMetadataStorage {\r\n    address internal owner;\r\n\r\n    constructor() {\r\n        owner = msg.sender;\r\n    }\r\n\r\n    modifier onlyOwner() {\r\n        require(msg.sender == owner, \"Only owner can call this function.\");\r\n        _;\r\n    }\r\n\r\n    struct CrashMetadata {\r\n        string dataId;     // MongoDB document ID\r\n        string vin;        // Vehicle Identification Number\r\n        uint256 timestamp; // Time of data recording\r\n        string location;   // GPS location\r\n        string[] cids;     // IPFS CIDs for associated files\r\n    }\r\n\r\n    CrashMetadata[] public metadataArray;\r\n    \r\n    // Event to emit when new metadata is stored\r\n    event MetadataStored(uint256 indexed index, string dataId, string vin, string[] cids);\r\n    \r\n    function storeMetadata(\r\n        string memory _dataId,\r\n        string memory _vin,\r\n        string memory _location,\r\n        string[] memory _cids\r\n    ) public onlyOwner {\r\n        CrashMetadata memory newMetadata = CrashMetadata({\r\n            dataId: _dataId,\r\n            vin: _vin,\r\n            timestamp: block.timestamp,\r\n            location: _location,\r\n            cids: _cids\r\n        });\r\n        \r\n        metadataArray.push(newMetadata);\r\n        emit MetadataStored(metadataArray.length - 1, _dataId, _vin, _cids);\r\n    }\r\n\r\n    function getMetadata(uint256 index) public view returns (\r\n        string memory dataId,\r\n        string memory vin,\r\n        uint256 timestamp,\r\n        string memory location,\r\n        string[] memory cids\r\n    ) {\r\n        require(index < metadataArray.length, \"Index out of bounds\");\r\n        CrashMetadata memory metadata = metadataArray[index];\r\n        return (\r\n            metadata.dataId,\r\n            metadata.vin,\r\n            metadata.timestamp,\r\n            metadata.location,\r\n            metadata.cids\r\n        );\r\n    }\r\n\r\n    function getTotalMetadataCount() public view returns (uint256) {\r\n        return metadataArray.length;\r\n    }\r\n    \r\n    function getCidsForMetadata(uint256 index) public view returns (string[] memory) {\r\n        require(index < metadataArray.length, \"Index out of bounds\");\r\n        return metadataArray[index].cids;\r\n    }\r\n}\r\n",
  "sourcePath": "D:\\fyp\\Crashchain\\backend\\blockchain\\contracts\\CrashMetadataStorage.sol",
  "compiler": {
    "name": "solc",
    "version": "0.8.0+commit.c7dfd78e.Emscripten.clang"
  },
  "schemaVersion": "3.4.16",
  "updatedAt": "2025-01-16T18:34:18.983Z",
  "networkType": "ethereum",
  "devdoc": {
    "kind": "dev",
    "methods": {},
    "version": 1
  },
  "userdoc": {
    "kind": "user",
    "methods": {},
    "version": 1
  }
}