{
  "contractName": "CrashMetadataStorage",
  "abi": [
    {
      "inputs": [],
      "stateMutability": "nonpayable",
      "type": "constructor"
    },
    {
      "inputs": [
        {
          "internalType": "uint256",
          "name": "",
          "type": "uint256"
        }
      ],
      "name": "metadataArray",
      "outputs": [
        {
          "internalType": "string",
          "name": "dataId",
          "type": "string"
        },
        {
          "internalType": "string",
          "name": "vin",
          "type": "string"
        },
        {
          "internalType": "uint256",
          "name": "timestamp",
          "type": "uint256"
        },
        {
          "internalType": "string",
          "name": "location",
          "type": "string"
        }
      ],
      "stateMutability": "view",
      "type": "function",
      "constant": true
    },
    {
      "inputs": [
        {
          "internalType": "string",
          "name": "_dataId",
          "type": "string"
        },
        {
          "internalType": "string",
          "name": "_vin",
          "type": "string"
        },
        {
          "internalType": "string",
          "name": "_location",
          "type": "string"
        }
      ],
      "name": "storeMetadata",
      "outputs": [],
      "stateMutability": "nonpayable",
      "type": "function"
    },
    {
      "inputs": [
        {
          "internalType": "uint256",
          "name": "index",
          "type": "uint256"
        }
      ],
      "name": "getMetadata",
      "outputs": [
        {
          "components": [
            {
              "internalType": "string",
              "name": "dataId",
              "type": "string"
            },
            {
              "internalType": "string",
              "name": "vin",
              "type": "string"
            },
            {
              "internalType": "uint256",
              "name": "timestamp",
              "type": "uint256"
            },
            {
              "internalType": "string",
              "name": "location",
              "type": "string"
            }
          ],
          "internalType": "struct CrashMetadataStorage.CrashMetadata",
          "name": "",
          "type": "tuple"
        }
      ],
      "stateMutability": "view",
      "type": "function",
      "constant": true
    },
    {
      "inputs": [],
      "name": "getTotalMetadataCount",
      "outputs": [
        {
          "internalType": "uint256",
          "name": "",
          "type": "uint256"
        }
      ],
      "stateMutability": "view",
      "type": "function",
      "constant": true
    }
  ],
  "bytecode": "0x608060405234801561001057600080fd5b50336000806101000a81548173ffffffffffffffffffffffffffffffffffffffff021916908373ffffffffffffffffffffffffffffffffffffffff160217905550610ccc806100606000396000f3fe608060405234801561001057600080fd5b506004361061004c5760003560e01c80633525a97e146100515780634f524d7c1461006f578063740324df1461008b578063a574cea4146100be575b600080fd5b6100596100ee565b6040516100669190610ae9565b60405180910390f35b610089600480360381019061008491906107c6565b6100fb565b005b6100a560048036038101906100a0919061085d565b61023d565b6040516100b59493929190610a2d565b60405180910390f35b6100d860048036038101906100d3919061085d565b610415565b6040516100e59190610ac7565b60405180910390f35b6000600180549050905090565b60008054906101000a900473ffffffffffffffffffffffffffffffffffffffff1673ffffffffffffffffffffffffffffffffffffffff163373ffffffffffffffffffffffffffffffffffffffff1614610189576040517f08c379a000000000000000000000000000000000000000000000000000000000815260040161018090610a87565b60405180910390fd5b6001604051806080016040528085815260200184815260200142815260200183815250908060018154018082558091505060019003906000526020600020906004020160009091909190915060008201518160000190805190602001906101f192919061067e565b50602082015181600101908051906020019061020e92919061067e565b5060408201518160020155606082015181600301908051906020019061023592919061067e565b505050505050565b6001818154811061024d57600080fd5b906000526020600020906004020160009150905080600001805461027090610bde565b80601f016020809104026020016040519081016040528092919081815260200182805461029c90610bde565b80156102e95780601f106102be576101008083540402835291602001916102e9565b820191906000526020600020905b8154815290600101906020018083116102cc57829003601f168201915b5050505050908060010180546102fe90610bde565b80601f016020809104026020016040519081016040528092919081815260200182805461032a90610bde565b80156103775780601f1061034c57610100808354040283529160200191610377565b820191906000526020600020905b81548152906001019060200180831161035a57829003601f168201915b50505050509080600201549080600301805461039290610bde565b80601f01602080910402602001604051908101604052809291908181526020018280546103be90610bde565b801561040b5780601f106103e05761010080835404028352916020019161040b565b820191906000526020600020905b8154815290600101906020018083116103ee57829003601f168201915b5050505050905084565b61041d610704565b6001805490508210610464576040517f08c379a000000000000000000000000000000000000000000000000000000000815260040161045b90610aa7565b60405180910390fd5b6001828154811061049e577f4e487b7100000000000000000000000000000000000000000000000000000000600052603260045260246000fd5b90600052602060002090600402016040518060800160405290816000820180546104c790610bde565b80601f01602080910402602001604051908101604052809291908181526020018280546104f390610bde565b80156105405780601f1061051557610100808354040283529160200191610540565b820191906000526020600020905b81548152906001019060200180831161052357829003601f168201915b5050505050815260200160018201805461055990610bde565b80601f016020809104026020016040519081016040528092919081815260200182805461058590610bde565b80156105d25780601f106105a7576101008083540402835291602001916105d2565b820191906000526020600020905b8154815290600101906020018083116105b557829003601f168201915b50505050508152602001600282015481526020016003820180546105f590610bde565b80601f016020809104026020016040519081016040528092919081815260200182805461062190610bde565b801561066e5780601f106106435761010080835404028352916020019161066e565b820191906000526020600020905b81548152906001019060200180831161065157829003601f168201915b5050505050815250509050919050565b82805461068a90610bde565b90600052602060002090601f0160209004810192826106ac57600085556106f3565b82601f106106c557805160ff19168380011785556106f3565b828001600101855582156106f3579182015b828111156106f25782518255916020019190600101906106d7565b5b509050610700919061072c565b5090565b6040518060800160405280606081526020016060815260200160008152602001606081525090565b5b8082111561074557600081600090555060010161072d565b5090565b600061075c61075784610b35565b610b04565b90508281526020810184848401111561077457600080fd5b61077f848285610b9c565b509392505050565b600082601f83011261079857600080fd5b81356107a8848260208601610749565b91505092915050565b6000813590506107c081610c7f565b92915050565b6000806000606084860312156107db57600080fd5b600084013567ffffffffffffffff8111156107f557600080fd5b61080186828701610787565b935050602084013567ffffffffffffffff81111561081e57600080fd5b61082a86828701610787565b925050604084013567ffffffffffffffff81111561084757600080fd5b61085386828701610787565b9150509250925092565b60006020828403121561086f57600080fd5b600061087d848285016107b1565b91505092915050565b600061089182610b65565b61089b8185610b70565b93506108ab818560208601610bab565b6108b481610c6e565b840191505092915050565b60006108ca82610b65565b6108d48185610b81565b93506108e4818560208601610bab565b6108ed81610c6e565b840191505092915050565b6000610905602283610b81565b91507f4f6e6c79206f776e65722063616e2063616c6c20746869732066756e6374696f60008301527f6e2e0000000000000000000000000000000000000000000000000000000000006020830152604082019050919050565b600061096b601383610b81565b91507f496e646578206f7574206f6620626f756e6473000000000000000000000000006000830152602082019050919050565b600060808301600083015184820360008601526109bb8282610886565b915050602083015184820360208601526109d58282610886565b91505060408301516109ea6040860182610a0f565b5060608301518482036060860152610a028282610886565b9150508091505092915050565b610a1881610b92565b82525050565b610a2781610b92565b82525050565b60006080820190508181036000830152610a4781876108bf565b90508181036020830152610a5b81866108bf565b9050610a6a6040830185610a1e565b8181036060830152610a7c81846108bf565b905095945050505050565b60006020820190508181036000830152610aa0816108f8565b9050919050565b60006020820190508181036000830152610ac08161095e565b9050919050565b60006020820190508181036000830152610ae1818461099e565b905092915050565b6000602082019050610afe6000830184610a1e565b92915050565b6000604051905081810181811067ffffffffffffffff82111715610b2b57610b2a610c3f565b5b8060405250919050565b600067ffffffffffffffff821115610b5057610b4f610c3f565b5b601f19601f8301169050602081019050919050565b600081519050919050565b600082825260208201905092915050565b600082825260208201905092915050565b6000819050919050565b82818337600083830152505050565b60005b83811015610bc9578082015181840152602081019050610bae565b83811115610bd8576000848401525b50505050565b60006002820490506001821680610bf657607f821691505b60208210811415610c0a57610c09610c10565b5b50919050565b7f4e487b7100000000000000000000000000000000000000000000000000000000600052602260045260246000fd5b7f4e487b7100000000000000000000000000000000000000000000000000000000600052604160045260246000fd5b6000601f19601f8301169050919050565b610c8881610b92565b8114610c9357600080fd5b5056fea26469706673582212207b165c04da5e0e71788a3c363d5444d1bcf44cc761e3c5dc07695f94fb22a68e64736f6c63430008000033",
  "immutableReferences": {},
  "source": "// SPDX-License-Identifier: MIT\r\npragma solidity ^0.8.0;\r\n\r\ncontract CrashMetadataStorage {\r\n    address internal owner;\r\n\r\n    constructor() {\r\n        owner = msg.sender;\r\n    }\r\n\r\n    modifier onlyOwner() {\r\n        require(msg.sender == owner, \"Only owner can call this function.\");\r\n        _;\r\n    }\r\n\r\n    struct CrashMetadata {\r\n        string dataId;     // MongoDB document ID\r\n        string vin;        // Vehicle Identification Number\r\n        uint256 timestamp; // Time of data recording\r\n        string location;   // GPS location (e.g., 40.7128N, 74.0060W)\r\n    }\r\n\r\n    CrashMetadata[] public metadataArray;\r\n\r\n    function storeMetadata(\r\n        string memory _dataId,\r\n        string memory _vin,\r\n        string memory _location\r\n    ) public onlyOwner {\r\n        metadataArray.push(\r\n            CrashMetadata({\r\n                dataId: _dataId,\r\n                vin: _vin,\r\n                timestamp: block.timestamp,\r\n                location: _location\r\n            })\r\n        );\r\n    }\r\n\r\n    function getMetadata(uint index) public view returns (CrashMetadata memory) {\r\n        require(index < metadataArray.length, \"Index out of bounds\");\r\n        return metadataArray[index];\r\n    }\r\n\r\n    function getTotalMetadataCount() public view returns (uint) {\r\n        return metadataArray.length;\r\n    }\r\n}\r\n",
  "sourcePath": "D:\\fyp\\Crashchain\\backend\\blockchain\\contracts\\CrashMetadataStorage.sol",
  "compiler": {
    "name": "solc",
    "version": "0.8.0+commit.c7dfd78e.Emscripten.clang"
  },
  "schemaVersion": "3.4.16",
  "updatedAt": "2024-11-12T16:15:26.128Z",
  "networkType": "ethereum",
  "devdoc": {
    "kind": "dev",
    "methods": {},
    "version": 1
  },
  "userdoc": {
    "kind": "user",
    "methods": {},
    "version": 1
  }
}